{
  "contractName": "Funding",
  "abi": [
    {
      "constant": true,
      "inputs": [
        {
          "name": "",
          "type": "address"
        }
      ],
      "name": "balances",
      "outputs": [
        {
          "name": "",
          "type": "uint256"
        }
      ],
      "payable": false,
      "stateMutability": "view",
      "type": "function"
    },
    {
      "constant": true,
      "inputs": [],
      "name": "goal",
      "outputs": [
        {
          "name": "",
          "type": "uint256"
        }
      ],
      "payable": false,
      "stateMutability": "view",
      "type": "function"
    },
    {
      "constant": true,
      "inputs": [],
      "name": "owner",
      "outputs": [
        {
          "name": "",
          "type": "address"
        }
      ],
      "payable": false,
      "stateMutability": "view",
      "type": "function"
    },
    {
      "constant": true,
      "inputs": [],
      "name": "finishesAt",
      "outputs": [
        {
          "name": "",
          "type": "uint256"
        }
      ],
      "payable": false,
      "stateMutability": "view",
      "type": "function"
    },
    {
      "constant": true,
      "inputs": [],
      "name": "raised",
      "outputs": [
        {
          "name": "",
          "type": "uint256"
        }
      ],
      "payable": false,
      "stateMutability": "view",
      "type": "function"
    },
    {
      "inputs": [
        {
          "name": "_duration",
          "type": "uint256"
        },
        {
          "name": "_goal",
          "type": "uint256"
        }
      ],
      "payable": false,
      "stateMutability": "nonpayable",
      "type": "constructor"
    },
    {
      "anonymous": false,
      "inputs": [
        {
          "indexed": false,
          "name": "_isfunded",
          "type": "bool"
        }
      ],
      "name": "isFundedEvent",
      "type": "event"
    },
    {
      "anonymous": false,
      "inputs": [
        {
          "indexed": false,
          "name": "_who",
          "type": "address"
        },
        {
          "indexed": false,
          "name": "_amount",
          "type": "uint256"
        }
      ],
      "name": "withdrawEvent",
      "type": "event"
    },
    {
      "anonymous": false,
      "inputs": [
        {
          "indexed": false,
          "name": "_who",
          "type": "address"
        },
        {
          "indexed": false,
          "name": "_amount",
          "type": "uint256"
        }
      ],
      "name": "donateEvent",
      "type": "event"
    },
    {
      "constant": true,
      "inputs": [],
      "name": "isFunded",
      "outputs": [
        {
          "name": "",
          "type": "bool"
        }
      ],
      "payable": false,
      "stateMutability": "view",
      "type": "function"
    },
    {
      "constant": false,
      "inputs": [],
      "name": "withdraw",
      "outputs": [],
      "payable": false,
      "stateMutability": "nonpayable",
      "type": "function"
    },
    {
      "constant": true,
      "inputs": [],
      "name": "isFinished",
      "outputs": [
        {
          "name": "",
          "type": "bool"
        }
      ],
      "payable": false,
      "stateMutability": "view",
      "type": "function"
    },
    {
      "constant": false,
      "inputs": [],
      "name": "donate",
      "outputs": [],
      "payable": true,
      "stateMutability": "payable",
      "type": "function"
    }
  ],
  "bytecode": "0x608060405234801561001057600080fd5b506040516040806107f28339810180604052604081101561003057600080fd5b810190808051906020019092919080519060200190929190505050336000806101000a81548173ffffffffffffffffffffffffffffffffffffffff021916908373ffffffffffffffffffffffffffffffffffffffff160217905550814201600181905550806002819055505050610746806100ac6000396000f3fe6080604052600436106100865760003560e01c80637c654303116100595780637c654303146101615780638da5cb5b146101905780639dbd8ff9146101e7578063ed88c68e14610212578063f0ea4bfc1461021c57610086565b806327e235e31461008b5780633ccfd60b146100f057806340193883146101075780637b35296214610132575b600080fd5b34801561009757600080fd5b506100da600480360360208110156100ae57600080fd5b81019080803573ffffffffffffffffffffffffffffffffffffffff169060200190929190505050610247565b6040518082815260200191505060405180910390f35b3480156100fc57600080fd5b5061010561025f565b005b34801561011357600080fd5b5061011c61049e565b6040518082815260200191505060405180910390f35b34801561013e57600080fd5b506101476104a4565b604051808215151515815260200191505060405180910390f35b34801561016d57600080fd5b506101766104b1565b604051808215151515815260200191505060405180910390f35b34801561019c57600080fd5b506101a56104c0565b604051808273ffffffffffffffffffffffffffffffffffffffff1673ffffffffffffffffffffffffffffffffffffffff16815260200191505060405180910390f35b3480156101f357600080fd5b506101fc6104e5565b6040518082815260200191505060405180910390f35b61021a6104eb565b005b34801561022857600080fd5b506102316106ed565b6040518082815260200191505060405180910390f35b60046020528060005260406000206000915090505481565b3373ffffffffffffffffffffffffffffffffffffffff166000809054906101000a900473ffffffffffffffffffffffffffffffffffffffff1673ffffffffffffffffffffffffffffffffffffffff1614610321576040517f08c379a00000000000000000000000000000000000000000000000000000000081526004018080602001828103825260158152602001807f596f75206d75737420626520746865206f776e6572000000000000000000000081525060200191505060405180910390fd5b6103296104b1565b61039b576040517f08c379a000000000000000000000000000000000000000000000000000000000815260040180806020018281038252600a8152602001807f4e6f742066756e6465640000000000000000000000000000000000000000000081525060200191505060405180910390fd5b7f87d5f4772963d1f9b76047158b4ae97c420a1b3bff2a746c828beffd9e7c3e26333073ffffffffffffffffffffffffffffffffffffffff1631604051808373ffffffffffffffffffffffffffffffffffffffff1673ffffffffffffffffffffffffffffffffffffffff1681526020018281526020019250505060405180910390a16000809054906101000a900473ffffffffffffffffffffffffffffffffffffffff1673ffffffffffffffffffffffffffffffffffffffff166108fc3073ffffffffffffffffffffffffffffffffffffffff16319081150290604051600060405180830381858888f1935050505015801561049b573d6000803e3d6000fd5b50565b60025481565b6000426001541115905090565b60006002546003541015905090565b6000809054906101000a900473ffffffffffffffffffffffffffffffffffffffff1681565b60015481565b6104f36104a4565b15610549576040517f08c379a00000000000000000000000000000000000000000000000000000000081526004018080602001828103825260278152602001806106f46027913960400191505060405180910390fd5b7f8d6ddaf9cee9a12c5287ef41351c9664584acdaf25533e4aedba2be43ff43b5c3334604051808373ffffffffffffffffffffffffffffffffffffffff1673ffffffffffffffffffffffffffffffffffffffff1681526020018281526020019250505060405180910390a134600460003373ffffffffffffffffffffffffffffffffffffffff1673ffffffffffffffffffffffffffffffffffffffff16815260200190815260200160002060008282540192505081905550346003600082825401925050819055507f8d6ddaf9cee9a12c5287ef41351c9664584acdaf25533e4aedba2be43ff43b5c33600354604051808373ffffffffffffffffffffffffffffffffffffffff1673ffffffffffffffffffffffffffffffffffffffff1681526020018281526020019250505060405180910390a17f8d6ddaf9cee9a12c5287ef41351c9664584acdaf25533e4aedba2be43ff43b5c33600254604051808373ffffffffffffffffffffffffffffffffffffffff1673ffffffffffffffffffffffffffffffffffffffff1681526020018281526020019250505060405180910390a1565b6003548156fe6973206e6f742066696e69736865642e202074696d6520686173206e6f7420657870697265642ea165627a7a72305820a2140c88493f52f02cba5747d2358c65169a9a2791fd3601efa0fb40e71459ab0029",
  "source": "pragma solidity ^0.5.1;\n\ncontract Funding {\n    address payable public owner;\n    uint public finishesAt;\n    uint public goal;\n    uint public raised;\n    mapping(address => uint) public balances;\n\n    constructor(uint _duration, uint _goal) public {\n        owner = msg.sender;\n        finishesAt = now + _duration;\n        goal = _goal;\n    }\n\n    event isFundedEvent(bool _isfunded);\n    event withdrawEvent(address _who, uint _amount);\n    event donateEvent(address _who, uint _amount);\n\n    modifier onlyOwner() {\n        require(owner == msg.sender, \"You must be the owner\");\n        _;\n    }\n\n    modifier onlyNotFinished() {\n        require(!isFinished(), \"is not finished.  time has not expired.\");\n        _;\n    }\n\n    modifier onlyFunded() {\n        require(isFunded(), \"Not funded\");\n        _;\n    }\n\n    function isFunded() view public returns (bool) {\n        //emit isFundedEvent(raised >= goal);\n        return raised >= goal; \n    }\n\n    function withdraw() public onlyOwner() onlyFunded() {\n        emit withdrawEvent(msg.sender,address(this).balance);\n        owner.transfer(address(this).balance);   \n         //msg.sender.transfer(msg.sender.balance); \n    }\n\n    function isFinished() public view returns (bool) {\n        return finishesAt <= now; \n    }\n\n    function donate() public onlyNotFinished payable {\n        emit donateEvent(msg.sender,msg.value);\n        balances[msg.sender] += msg.value;\n        raised += msg.value; \n        emit donateEvent(msg.sender,raised);\n        emit donateEvent(msg.sender,goal);\n    } \n}",
  "sourcePath": "/Users/denisputnam/git/mi4-exercise5/contracts/Funding.sol",
  "compiler": {
    "name": "solc",
    "version": "0.5.8+commit.23d335f2.Emscripten.clang"
  },
  "schemaVersion": "3.0.11",
  "updatedAt": "2020-03-05T02:45:43.765Z",
  "devdoc": {
    "methods": {}
  },
  "userdoc": {
    "methods": {}
  }
}